8=FIXT.1.1|9=308|35=S|49=DECIDE|56=CDPHTTP|34=87|145=8:8|52=20160914-12:56:32.529|132=20|134=100|100000=AdditionalFields-CBK|100001=AdditionalFields-CDP|100002=AdditionalFields-CD|15=EUR|22=4|133=22|135=100|117=2745426|131=20160914145629775|100003=AdditionalFields-SC|48=DE0008404005|55=DE0008404005|60=20160914-12:56:32.500|10=130|